{
    "address": "0xe7f1725E7734CE288F8367e1Bb143E90bb3F0512",
    "abi": [
        {
            "inputs": [
                {
                    "internalType": "address",
                    "name": "priceFeedAddress",
                    "type": "address"
                }
            ],
            "stateMutability": "nonpayable",
            "type": "constructor"
        },
        {
            "inputs": [],
            "name": "FundMe__NotOwner",
            "type": "error"
        },
        {
            "stateMutability": "payable",
            "type": "fallback"
        },
        {
            "inputs": [],
            "name": "MINIMUM_USD",
            "outputs": [
                {
                    "internalType": "uint256",
                    "name": "",
                    "type": "uint256"
                }
            ],
            "stateMutability": "view",
            "type": "function"
        },
        {
            "inputs": [],
            "name": "cheaperWithdraw",
            "outputs": [],
            "stateMutability": "payable",
            "type": "function"
        },
        {
            "inputs": [],
            "name": "fund",
            "outputs": [],
            "stateMutability": "payable",
            "type": "function"
        },
        {
            "inputs": [],
            "name": "i_owner",
            "outputs": [
                {
                    "internalType": "address",
                    "name": "",
                    "type": "address"
                }
            ],
            "stateMutability": "view",
            "type": "function"
        },
        {
            "inputs": [
                {
                    "internalType": "address",
                    "name": "",
                    "type": "address"
                }
            ],
            "name": "s_addressToAmountFunded",
            "outputs": [
                {
                    "internalType": "uint256",
                    "name": "",
                    "type": "uint256"
                }
            ],
            "stateMutability": "view",
            "type": "function"
        },
        {
            "inputs": [
                {
                    "internalType": "uint256",
                    "name": "",
                    "type": "uint256"
                }
            ],
            "name": "s_funders",
            "outputs": [
                {
                    "internalType": "address",
                    "name": "",
                    "type": "address"
                }
            ],
            "stateMutability": "view",
            "type": "function"
        },
        {
            "inputs": [],
            "name": "s_priceFeed",
            "outputs": [
                {
                    "internalType": "contract AggregatorV3Interface",
                    "name": "",
                    "type": "address"
                }
            ],
            "stateMutability": "view",
            "type": "function"
        },
        {
            "inputs": [],
            "name": "withdraw",
            "outputs": [],
            "stateMutability": "nonpayable",
            "type": "function"
        },
        {
            "stateMutability": "payable",
            "type": "receive"
        }
    ],
    "transactionHash": "0x9ea3a5223825fa1cf91a15d5d510ebc092a49dd2c2dafeaaf7d1731358da19a7",
    "args": [
        "0x5FbDB2315678afecb367f032d93F642f64180aa3"
    ],
    "numDeployments": 1,
    "solcInputHash": "9c3db241bdc1189f87636f08be12287e",
    "bytecode": "0x60a06040523480156200001157600080fd5b506040516200128d3803806200128d833981810160405281019062000037919062000120565b3373ffffffffffffffffffffffffffffffffffffffff1660808173ffffffffffffffffffffffffffffffffffffffff1660601b8152505080600260006101000a81548173ffffffffffffffffffffffffffffffffffffffff021916908373ffffffffffffffffffffffffffffffffffffffff1602179055505062000152565b600080fd5b600073ffffffffffffffffffffffffffffffffffffffff82169050919050565b6000620000e882620000bb565b9050919050565b620000fa81620000db565b81146200010657600080fd5b50565b6000815190506200011a81620000ef565b92915050565b600060208284031215620001395762000138620000b6565b5b6000620001498482850162000109565b91505092915050565b60805160601c611107620001866000396000818161031d015281816105a90152818161079f015261083701526111076000f3fe60806040526004361061007f5760003560e01c80636b69a5921161004e5780636b69a59214610154578063b60d42881461017f578063be2693f014610189578063dba6335f146101935761008e565b80630ec3b027146100985780631bf6132d146100c35780633ccfd60b1461010057806354861af7146101175761008e565b3661008e5761008c6101be565b005b6100966101be565b005b3480156100a457600080fd5b506100ad6102dd565b6040516100ba9190610a5b565b60405180910390f35b3480156100cf57600080fd5b506100ea60048036038101906100e59190610ab9565b610303565b6040516100f79190610aff565b60405180910390f35b34801561010c57600080fd5b5061011561031b565b005b34801561012357600080fd5b5061013e60048036038101906101399190610b46565b61055c565b60405161014b9190610b82565b60405180910390f35b34801561016057600080fd5b5061016961059b565b6040516101769190610aff565b60405180910390f35b6101876101be565b005b6101916105a7565b005b34801561019f57600080fd5b506101a8610835565b6040516101b59190610b82565b60405180910390f35b678ac7230489e800006101f334600260009054906101000a900473ffffffffffffffffffffffffffffffffffffffff16610859565b1015610234576040517f08c379a000000000000000000000000000000000000000000000000000000000815260040161022b90610bfa565b60405180910390fd5b6000339080600181540180825580915050600190039060005260206000200160009091909190916101000a81548173ffffffffffffffffffffffffffffffffffffffff021916908373ffffffffffffffffffffffffffffffffffffffff16021790555034600160003373ffffffffffffffffffffffffffffffffffffffff1673ffffffffffffffffffffffffffffffffffffffff16815260200190815260200160002081905550565b600260009054906101000a900473ffffffffffffffffffffffffffffffffffffffff1681565b60016020528060005260406000206000915090505481565b7f000000000000000000000000000000000000000000000000000000000000000073ffffffffffffffffffffffffffffffffffffffff163373ffffffffffffffffffffffffffffffffffffffff16146103a0576040517f579610db00000000000000000000000000000000000000000000000000000000815260040160405180910390fd5b60005b60008054905081101561044c5760008082815481106103c5576103c4610c1a565b5b9060005260206000200160009054906101000a900473ffffffffffffffffffffffffffffffffffffffff1690506000600160008373ffffffffffffffffffffffffffffffffffffffff1673ffffffffffffffffffffffffffffffffffffffff16815260200190815260200160002081905550506001816104459190610c78565b90506103a3565b50600067ffffffffffffffff81111561046857610467610cce565b5b6040519080825280602002602001820160405280156104965781602001602082028036833780820191505090505b50600090805190602001906104ac929190610935565b5060003373ffffffffffffffffffffffffffffffffffffffff16476040516104d390610d2e565b60006040518083038185875af1925050503d8060008114610510576040519150601f19603f3d011682016040523d82523d6000602084013e610515565b606091505b5050905080610559576040517f08c379a000000000000000000000000000000000000000000000000000000000815260040161055090610d8f565b60405180910390fd5b50565b6000818154811061056c57600080fd5b906000526020600020016000915054906101000a900473ffffffffffffffffffffffffffffffffffffffff1681565b678ac7230489e8000081565b7f000000000000000000000000000000000000000000000000000000000000000073ffffffffffffffffffffffffffffffffffffffff163373ffffffffffffffffffffffffffffffffffffffff161461062c576040517f579610db00000000000000000000000000000000000000000000000000000000815260040160405180910390fd5b6000808054806020026020016040519081016040528092919081815260200182805480156106af57602002820191906000526020600020905b8160009054906101000a900473ffffffffffffffffffffffffffffffffffffffff1673ffffffffffffffffffffffffffffffffffffffff1681526020019060010190808311610665575b5050505050905060005b815181101561073a5760008282815181106106d7576106d6610c1a565b5b602002602001015190506000600160008373ffffffffffffffffffffffffffffffffffffffff1673ffffffffffffffffffffffffffffffffffffffff1681526020019081526020016000208190555050808061073290610daf565b9150506106b9565b50600067ffffffffffffffff81111561075657610755610cce565b5b6040519080825280602002602001820160405280156107845781602001602082028036833780820191505090505b506000908051906020019061079a929190610935565b5060007f000000000000000000000000000000000000000000000000000000000000000073ffffffffffffffffffffffffffffffffffffffff16476040516107e190610d2e565b60006040518083038185875af1925050503d806000811461081e576040519150601f19603f3d011682016040523d82523d6000602084013e610823565b606091505b505090508061083157600080fd5b5050565b7f000000000000000000000000000000000000000000000000000000000000000081565b60008061086583610895565b90506000670de0b6b3a7640000858361087e9190610df8565b6108889190610e81565b9050809250505092915050565b6000808273ffffffffffffffffffffffffffffffffffffffff1663feaf968c6040518163ffffffff1660e01b815260040160a06040518083038186803b1580156108de57600080fd5b505afa1580156108f2573d6000803e3d6000fd5b505050506040513d601f19601f820116820180604052508101906109169190610f3f565b5050509150506402540be4008161092d9190610fba565b915050919050565b8280548282559060005260206000209081019282156109ae579160200282015b828111156109ad5782518260006101000a81548173ffffffffffffffffffffffffffffffffffffffff021916908373ffffffffffffffffffffffffffffffffffffffff16021790555091602001919060010190610955565b5b5090506109bb91906109bf565b5090565b5b808211156109d85760008160009055506001016109c0565b5090565b600073ffffffffffffffffffffffffffffffffffffffff82169050919050565b6000819050919050565b6000610a21610a1c610a17846109dc565b6109fc565b6109dc565b9050919050565b6000610a3382610a06565b9050919050565b6000610a4582610a28565b9050919050565b610a5581610a3a565b82525050565b6000602082019050610a706000830184610a4c565b92915050565b600080fd5b6000610a86826109dc565b9050919050565b610a9681610a7b565b8114610aa157600080fd5b50565b600081359050610ab381610a8d565b92915050565b600060208284031215610acf57610ace610a76565b5b6000610add84828501610aa4565b91505092915050565b6000819050919050565b610af981610ae6565b82525050565b6000602082019050610b146000830184610af0565b92915050565b610b2381610ae6565b8114610b2e57600080fd5b50565b600081359050610b4081610b1a565b92915050565b600060208284031215610b5c57610b5b610a76565b5b6000610b6a84828501610b31565b91505092915050565b610b7c81610a7b565b82525050565b6000602082019050610b976000830184610b73565b92915050565b600082825260208201905092915050565b7f4469646e27742073656e6420656e6f7567682100000000000000000000000000600082015250565b6000610be4601383610b9d565b9150610bef82610bae565b602082019050919050565b60006020820190508181036000830152610c1381610bd7565b9050919050565b7f4e487b7100000000000000000000000000000000000000000000000000000000600052603260045260246000fd5b7f4e487b7100000000000000000000000000000000000000000000000000000000600052601160045260246000fd5b6000610c8382610ae6565b9150610c8e83610ae6565b9250827fffffffffffffffffffffffffffffffffffffffffffffffffffffffffffffffff03821115610cc357610cc2610c49565b5b828201905092915050565b7f4e487b7100000000000000000000000000000000000000000000000000000000600052604160045260246000fd5b600081905092915050565b50565b6000610d18600083610cfd565b9150610d2382610d08565b600082019050919050565b6000610d3982610d0b565b9150819050919050565b7f43616c6c206661696c6564210000000000000000000000000000000000000000600082015250565b6000610d79600c83610b9d565b9150610d8482610d43565b602082019050919050565b60006020820190508181036000830152610da881610d6c565b9050919050565b6000610dba82610ae6565b91507fffffffffffffffffffffffffffffffffffffffffffffffffffffffffffffffff821415610ded57610dec610c49565b5b600182019050919050565b6000610e0382610ae6565b9150610e0e83610ae6565b9250817fffffffffffffffffffffffffffffffffffffffffffffffffffffffffffffffff0483118215151615610e4757610e46610c49565b5b828202905092915050565b7f4e487b7100000000000000000000000000000000000000000000000000000000600052601260045260246000fd5b6000610e8c82610ae6565b9150610e9783610ae6565b925082610ea757610ea6610e52565b5b828204905092915050565b600069ffffffffffffffffffff82169050919050565b610ed181610eb2565b8114610edc57600080fd5b50565b600081519050610eee81610ec8565b92915050565b6000819050919050565b610f0781610ef4565b8114610f1257600080fd5b50565b600081519050610f2481610efe565b92915050565b600081519050610f3981610b1a565b92915050565b600080600080600060a08688031215610f5b57610f5a610a76565b5b6000610f6988828901610edf565b9550506020610f7a88828901610f15565b9450506040610f8b88828901610f2a565b9350506060610f9c88828901610f2a565b9250506080610fad88828901610edf565b9150509295509295909350565b6000610fc582610ef4565b9150610fd083610ef4565b9250827f7fffffffffffffffffffffffffffffffffffffffffffffffffffffffffffffff048211600084136000841316161561100f5761100e610c49565b5b817f8000000000000000000000000000000000000000000000000000000000000000058312600084126000841316161561104c5761104b610c49565b5b827f8000000000000000000000000000000000000000000000000000000000000000058212600084136000841216161561108957611088610c49565b5b827f7fffffffffffffffffffffffffffffffffffffffffffffffffffffffffffffff05821260008412600084121616156110c6576110c5610c49565b5b82820290509291505056fea26469706673582212205e9581bd4049198a41ceb28e494f00b3370a6b0662a6c619ee52966ae01caf3064736f6c63430008080033",
    "devdoc": {
        "author": "Rocco Zha",
        "details": "This implements price feeds as our library",
        "kind": "dev",
        "methods": {
            "fund()": {
                "details": "The contract will only fund if the conversion rate is greater than the MINIMUM_USD"
            }
        },
        "title": "A contract for crowd funding",
        "version": 1
    },
    "userdoc": {
        "kind": "user",
        "methods": {
            "fund()": {
                "notice": "This function allows you to fund the contract"
            }
        },
        "notice": "You can use this contract for crowd funding",
        "version": 1
    },
    "storageLayout": {
        "storage": [
            {
                "astId": 62,
                "contract": "contracts/FundMe.sol:FundMe",
                "label": "s_funders",
                "offset": 0,
                "slot": "0",
                "type": "t_array(t_address)dyn_storage"
            },
            {
                "astId": 66,
                "contract": "contracts/FundMe.sol:FundMe",
                "label": "s_addressToAmountFunded",
                "offset": 0,
                "slot": "1",
                "type": "t_mapping(t_address,t_uint256)"
            },
            {
                "astId": 71,
                "contract": "contracts/FundMe.sol:FundMe",
                "label": "s_priceFeed",
                "offset": 0,
                "slot": "2",
                "type": "t_contract(AggregatorV3Interface)45"
            }
        ],
        "types": {
            "t_address": {
                "encoding": "inplace",
                "label": "address",
                "numberOfBytes": "20"
            },
            "t_array(t_address)dyn_storage": {
                "base": "t_address",
                "encoding": "dynamic_array",
                "label": "address[]",
                "numberOfBytes": "32"
            },
            "t_contract(AggregatorV3Interface)45": {
                "encoding": "inplace",
                "label": "contract AggregatorV3Interface",
                "numberOfBytes": "20"
            },
            "t_mapping(t_address,t_uint256)": {
                "encoding": "mapping",
                "key": "t_address",
                "label": "mapping(address => uint256)",
                "numberOfBytes": "32",
                "value": "t_uint256"
            },
            "t_uint256": {
                "encoding": "inplace",
                "label": "uint256",
                "numberOfBytes": "32"
            }
        }
    }
}